{
  "contractName": "BurnableToken",
  "abi": [
    {
      "constant": true,
      "inputs": [],
      "name": "totalSupply",
      "outputs": [
        {
          "name": "",
          "type": "uint256"
        }
      ],
      "payable": false,
      "stateMutability": "view",
      "type": "function"
    },
    {
      "constant": true,
      "inputs": [
        {
          "name": "_owner",
          "type": "address"
        }
      ],
      "name": "balanceOf",
      "outputs": [
        {
          "name": "balance",
          "type": "uint256"
        }
      ],
      "payable": false,
      "stateMutability": "view",
      "type": "function"
    },
    {
      "constant": false,
      "inputs": [
        {
          "name": "_to",
          "type": "address"
        },
        {
          "name": "_value",
          "type": "uint256"
        }
      ],
      "name": "transfer",
      "outputs": [
        {
          "name": "",
          "type": "bool"
        }
      ],
      "payable": false,
      "stateMutability": "nonpayable",
      "type": "function"
    },
    {
      "anonymous": false,
      "inputs": [
        {
          "indexed": true,
          "name": "burner",
          "type": "address"
        },
        {
          "indexed": false,
          "name": "value",
          "type": "uint256"
        }
      ],
      "name": "Burn",
      "type": "event"
    },
    {
      "anonymous": false,
      "inputs": [
        {
          "indexed": true,
          "name": "from",
          "type": "address"
        },
        {
          "indexed": true,
          "name": "to",
          "type": "address"
        },
        {
          "indexed": false,
          "name": "value",
          "type": "uint256"
        }
      ],
      "name": "Transfer",
      "type": "event"
    },
    {
      "constant": false,
      "inputs": [
        {
          "name": "_value",
          "type": "uint256"
        }
      ],
      "name": "burn",
      "outputs": [],
      "payable": false,
      "stateMutability": "nonpayable",
      "type": "function"
    }
  ],
  "bytecode": "0x6060604052341561000f57600080fd5b6103fc8061001e6000396000f3006060604052600436106100615763ffffffff7c010000000000000000000000000000000000000000000000000000000060003504166318160ddd811461006657806342966c681461008b57806370a08231146100a3578063a9059cbb146100cf575b600080fd5b341561007157600080fd5b610079610112565b60405190815260200160405180910390f35b341561009657600080fd5b6100a1600435610118565b005b34156100ae57600080fd5b61007973ffffffffffffffffffffffffffffffffffffffff60043516610206565b34156100da57600080fd5b6100fe73ffffffffffffffffffffffffffffffffffffffff6004351660243561022e565b604051901515815260200160405180910390f35b60015490565b73ffffffffffffffffffffffffffffffffffffffff331660009081526020819052604081205482111561014a57600080fd5b503373ffffffffffffffffffffffffffffffffffffffff811660009081526020819052604090205461017c90836103a8565b73ffffffffffffffffffffffffffffffffffffffff82166000908152602081905260409020556001546101b5908363ffffffff6103a816565b60015573ffffffffffffffffffffffffffffffffffffffff81167fcc16f5dbb4873280815c1ee09dbd06736cffcc184412cf7a71a0fdb75d397ca58360405190815260200160405180910390a25050565b73ffffffffffffffffffffffffffffffffffffffff1660009081526020819052604090205490565b600073ffffffffffffffffffffffffffffffffffffffff8316151561025257600080fd5b73ffffffffffffffffffffffffffffffffffffffff331660009081526020819052604090205482111561028457600080fd5b73ffffffffffffffffffffffffffffffffffffffff33166000908152602081905260409020546102ba908363ffffffff6103a816565b73ffffffffffffffffffffffffffffffffffffffff33811660009081526020819052604080822093909355908516815220546102fc908363ffffffff6103ba16565b6000808573ffffffffffffffffffffffffffffffffffffffff1673ffffffffffffffffffffffffffffffffffffffff168152602001908152602001600020819055508273ffffffffffffffffffffffffffffffffffffffff163373ffffffffffffffffffffffffffffffffffffffff167fddf252ad1be2c89b69c2b068fc378daa952ba7f163c4a11628f55a4df523b3ef8460405190815260200160405180910390a350600192915050565b6000828211156103b457fe5b50900390565b6000828201838110156103c957fe5b93925050505600a165627a7a723058204a4376262bb8162418b878144fe4572c13ba2c335ad537a13ceeb0c1982dc3910029",
  "source": "pragma solidity ^ 0.4 .18;\n\nimport \"./BasicToken.sol\";\n\n\n/**\n * @title Burnable Token\n * @dev Token that can be irreversibly burned (destroyed).\n */\ncontract BurnableToken is BasicToken {\n\n  event Burn(address indexed burner, uint256 value);\n\n  /**\n   * @dev Burns a specific amount of tokens.\n   * @param _value The amount of token to be burned.\n   */\n  function burn(uint256 _value) public {\n    require(_value <= balances[msg.sender]);\n    // no need to require value <= totalSupply, since that would imply the\n    // sender's balance is greater than the totalSupply, which *should* be an assertion failure\n\n    address burner = msg.sender;\n    balances[burner] = balances[burner].sub(_value);\n    totalSupply_ = totalSupply_.sub(_value);\n    emit Burn(burner, _value);\n  }\n}",
  "sourcePath": "/home/ryan/Documents/Repos/MVP/contracts/zeppelin/token/ERC20/BurnableToken.sol",
  "compiler": {
    "name": "solc",
    "version": "0.4.21+commit.dfe3193c.Emscripten.clang"
  },
  "schemaVersion": "2.0.0",
  "updatedAt": "2018-04-11T12:55:55.827Z"
}