{
  "contractName": "CompliantToken",
  "abi": [
    {
      "constant": true,
      "inputs": [],
      "name": "name",
      "outputs": [
        {
          "name": "",
          "type": "string"
        }
      ],
      "payable": false,
      "stateMutability": "view",
      "type": "function"
    },
    {
      "constant": true,
      "inputs": [],
      "name": "totalSupply",
      "outputs": [
        {
          "name": "",
          "type": "uint256"
        }
      ],
      "payable": false,
      "stateMutability": "view",
      "type": "function"
    },
    {
      "constant": true,
      "inputs": [],
      "name": "decimals",
      "outputs": [
        {
          "name": "",
          "type": "uint8"
        }
      ],
      "payable": false,
      "stateMutability": "view",
      "type": "function"
    },
    {
      "constant": true,
      "inputs": [],
      "name": "MAX_UINT256",
      "outputs": [
        {
          "name": "",
          "type": "uint256"
        }
      ],
      "payable": false,
      "stateMutability": "view",
      "type": "function"
    },
    {
      "constant": true,
      "inputs": [],
      "name": "symbol",
      "outputs": [
        {
          "name": "",
          "type": "string"
        }
      ],
      "payable": false,
      "stateMutability": "view",
      "type": "function"
    },
    {
      "inputs": [
        {
          "name": "_initialAmount",
          "type": "uint256"
        },
        {
          "name": "_tokenName",
          "type": "string"
        },
        {
          "name": "_decimalUnits",
          "type": "uint8"
        },
        {
          "name": "_issuingAmount",
          "type": "uint16"
        },
        {
          "name": "_tokenSymbol",
          "type": "string"
        }
      ],
      "payable": false,
      "stateMutability": "nonpayable",
      "type": "constructor"
    },
    {
      "anonymous": false,
      "inputs": [
        {
          "indexed": false,
          "name": "account",
          "type": "address"
        },
        {
          "indexed": false,
          "name": "amount",
          "type": "uint256"
        }
      ],
      "name": "TokensIssued",
      "type": "event"
    },
    {
      "anonymous": false,
      "inputs": [
        {
          "indexed": true,
          "name": "from",
          "type": "address"
        },
        {
          "indexed": true,
          "name": "to",
          "type": "address"
        },
        {
          "indexed": false,
          "name": "value",
          "type": "uint256"
        },
        {
          "indexed": true,
          "name": "data",
          "type": "bytes"
        }
      ],
      "name": "Transfer",
      "type": "event"
    },
    {
      "constant": false,
      "inputs": [],
      "name": "facet",
      "outputs": [],
      "payable": false,
      "stateMutability": "nonpayable",
      "type": "function"
    },
    {
      "constant": false,
      "inputs": [
        {
          "name": "_to",
          "type": "address"
        },
        {
          "name": "_value",
          "type": "uint256"
        }
      ],
      "name": "transfer",
      "outputs": [
        {
          "name": "success",
          "type": "bool"
        }
      ],
      "payable": false,
      "stateMutability": "nonpayable",
      "type": "function"
    },
    {
      "constant": false,
      "inputs": [
        {
          "name": "_to",
          "type": "address"
        },
        {
          "name": "_value",
          "type": "uint256"
        },
        {
          "name": "_data",
          "type": "bytes"
        }
      ],
      "name": "transfer",
      "outputs": [
        {
          "name": "success",
          "type": "bool"
        }
      ],
      "payable": false,
      "stateMutability": "nonpayable",
      "type": "function"
    },
    {
      "constant": false,
      "inputs": [
        {
          "name": "_to",
          "type": "address"
        },
        {
          "name": "_value",
          "type": "uint256"
        },
        {
          "name": "_data",
          "type": "bytes"
        },
        {
          "name": "_custom_fallback",
          "type": "string"
        }
      ],
      "name": "transfer",
      "outputs": [
        {
          "name": "success",
          "type": "bool"
        }
      ],
      "payable": false,
      "stateMutability": "nonpayable",
      "type": "function"
    },
    {
      "constant": true,
      "inputs": [
        {
          "name": "_owner",
          "type": "address"
        }
      ],
      "name": "balanceOf",
      "outputs": [
        {
          "name": "balance",
          "type": "uint256"
        }
      ],
      "payable": false,
      "stateMutability": "view",
      "type": "function"
    }
  ],
  "bytecode": "0x6060604052341561000f57600080fd5b604051610d23380380610d2383398101604052808051919060200180518201919060200180519190602001805191906020018051600160a060020a0330811660009081526001602052604080822061ffff6014890216808c0390915533909316825290208190556006889055920191905060038580516100939291602001906100d3565b506005805460ff191660ff86161790556007805461ffff191661ffff851617905560048280516100c79291602001906100d3565b5050505050505061016e565b828054600181600116156101000203166002900490600052602060002090601f016020900481019282601f1061011457805160ff1916838001178555610141565b82800160010185558215610141579182015b82811115610141578251825591602001919060010190610126565b5061014d929150610151565b5090565b61016b91905b8082111561014d5760008155600101610157565b90565b610ba68061017d6000396000f3006060604052600436106100a35763ffffffff7c010000000000000000000000000000000000000000000000000000000060003504166306fdde0381146100a857806318160ddd14610132578063313ce5671461015757806333a581d21461018057806370a082311461019357806395d89b41146101b2578063a9059cbb146101c5578063b6010cab146101fb578063be45fd6214610210578063f6368f8a14610275575b600080fd5b34156100b357600080fd5b6100bb61031c565b60405160208082528190810183818151815260200191508051906020019080838360005b838110156100f75780820151838201526020016100df565b50505050905090810190601f1680156101245780820380516001836020036101000a031916815260200191505b509250505060405180910390f35b341561013d57600080fd5b6101456103ba565b60405190815260200160405180910390f35b341561016257600080fd5b61016a6103c0565b60405160ff909116815260200160405180910390f35b341561018b57600080fd5b6101456103c9565b341561019e57600080fd5b610145600160a060020a03600435166103cf565b34156101bd57600080fd5b6100bb6103ea565b34156101d057600080fd5b6101e7600160a060020a0360043516602435610455565b604051901515815260200160405180910390f35b341561020657600080fd5b61020e610491565b005b341561021b57600080fd5b6101e760048035600160a060020a03169060248035919060649060443590810190830135806020601f8201819004810201604051908101604052818152929190602084018383808284375094965061055a95505050505050565b341561028057600080fd5b6101e760048035600160a060020a03169060248035919060649060443590810190830135806020601f8201819004810201604051908101604052818152929190602084018383808284378201915050505050509190803590602001908201803590602001908080601f01602080910402602001604051908101604052818152929190602084018383808284375094965061058e95505050505050565b60038054600181600116156101000203166002900480601f0160208091040260200160405190810160405280929190818152602001828054600181600116156101000203166002900480156103b25780601f10610387576101008083540402835291602001916103b2565b820191906000526020600020905b81548152906001019060200180831161039557829003601f168201915b505050505081565b60065481565b60055460ff1681565b60001981565b600160a060020a031660009081526001602052604090205490565b60048054600181600116156101000203166002900480601f0160208091040260200160405190810160405280929190818152602001828054600181600116156101000203166002900480156103b25780601f10610387576101008083540402835291602001916103b2565b600061045f610b68565b6104688461080f565b1561047f57610478848483610817565b915061048a565b610478848483610a1d565b5092915050565b600160a060020a033316600090815260026020526040902054156104b457600080fd5b60078054600160a060020a033081166000908152600160208181526040808420805461ffff9788169003905586543395861685526002835281852080549188169091019055865492909152918290208054918516909101905592547f21d739f160a7464fddaac4a1d1517d84e76b75618a053943b345c408c4160fe0939192169051600160a060020a03909216825261ffff1660208201526040908101905180910390a1565b60006105658461080f565b1561057c57610575848484610817565b9050610587565b610575848484610a1d565b9392505050565b60006105998561080f565b156107f957836105a8336103cf565b10156105b357600080fd5b6105c56105bf336103cf565b85610b3b565b600160a060020a0333166000908152600160205260409020556105f06105ea866103cf565b85610b50565b600160a060020a0386166000818152600160205260408082209390935590918490518082805190602001908083835b6020831061063e5780518252601f19909201916020918201910161061f565b6001836020036101000a038019825116818451161790925250505091909101925060409150505180910390207c01000000000000000000000000000000000000000000000000000000009004903387876040518563ffffffff167c01000000000000000000000000000000000000000000000000000000000281526004018084600160a060020a0316600160a060020a03168152602001838152602001828051906020019080838360005b838110156107015780820151838201526020016106e9565b50505050905090810190601f16801561072e5780820380516001836020036101000a031916815260200191505b50935050505060006040518083038185885af19350505050151561074e57fe5b826040518082805190602001908083835b6020831061077e5780518252601f19909201916020918201910161075f565b6001836020036101000a0380198251168184511617909252505050919091019250604091505051809103902085600160a060020a031633600160a060020a03167fe19260aff97b920c7df27010903aeb9c8d2be5d310a2c67824cf3f15396e4c168760405190815260200160405180910390a4506001610807565b610804858585610a1d565b90505b949350505050565b6000903b1190565b60008083610824336103cf565b101561082f57600080fd5b61083b6105bf336103cf565b600160a060020a0333166000908152600160205260409020556108606105ea866103cf565b600160a060020a03861660008181526001602052604090819020929092558692509063c0ee0b8a90339087908790518463ffffffff167c01000000000000000000000000000000000000000000000000000000000281526004018084600160a060020a0316600160a060020a0316815260200183815260200180602001828103825283818151815260200191508051906020019080838360005b838110156109125780820151838201526020016108fa565b50505050905090810190601f16801561093f5780820380516001836020036101000a031916815260200191505b50945050505050600060405180830381600087803b151561095f57600080fd5b5af1151561096c57600080fd5b505050826040518082805190602001908083835b6020831061099f5780518252601f199092019160209182019101610980565b6001836020036101000a0380198251168184511617909252505050919091019250604091505051809103902085600160a060020a031633600160a060020a03167fe19260aff97b920c7df27010903aeb9c8d2be5d310a2c67824cf3f15396e4c168760405190815260200160405180910390a4506001949350505050565b600082610a29336103cf565b1015610a3457600080fd5b610a46610a40336103cf565b84610b3b565b600160a060020a033316600090815260016020526040902055610a71610a6b856103cf565b84610b50565b600160a060020a03851660009081526001602052604090819020919091558290518082805190602001908083835b60208310610abe5780518252601f199092019160209182019101610a9f565b6001836020036101000a0380198251168184511617909252505050919091019250604091505051809103902084600160a060020a031633600160a060020a03167fe19260aff97b920c7df27010903aeb9c8d2be5d310a2c67824cf3f15396e4c168660405190815260200160405180910390a45060019392505050565b600081831015610b4a57600080fd5b50900390565b60008160001903831115610b6357600080fd5b500190565b602060405190810160405260008152905600a165627a7a723058202273309818ae078d47b583177b69d4cdedc86e2e4c87d83c174d513b58e6e5b70029",
  "source": "pragma solidity ^ 0.4 .18;\n\nimport \"./ERC223/ERC223_Interface.sol\";\nimport \"./ERC223/Receiver_Interface.sol\";\n// import \"./zeppelin/SafeMath.sol\";\n // Using Revert safemath for Token interactions as used by ERC223 recommendation\nimport \"./ERC223/SafeMath.sol\";\n\n// This is a ERC223 token with a simple facet facility \ncontract CompliantToken is ERC223, SafeMath {\n    mapping(address => uint) balances;\n    // Tracks all earned tokens, not transfered\n    mapping(address => uint) issued;\n\n    string public name;\n    string public symbol;\n    uint8 public decimals;\n    uint256 public totalSupply;\n\n    uint16 private issuingAmount;\n\n    event TokensIssued(address account, uint amount);\n\n    // 20000000,\"Facet223\",2,200,\"FTC\"\n    function CompliantToken(\n        uint256 _initialAmount,\n        string _tokenName,\n        uint8 _decimalUnits,\n        uint16 _issuingAmount,\n        string _tokenSymbol\n    ) public {\n        uint init = _issuingAmount * 20;\n        balances[this] = _initialAmount - init;               \n        balances[msg.sender] = init;               \n        totalSupply = _initialAmount;                        \n        name = _tokenName;                                   \n        decimals = _decimalUnits;        \n        issuingAmount = _issuingAmount;              \n        symbol = _tokenSymbol;                               \n    }\n\n    modifier onlyNewAccount() {\n        require(issued[msg.sender] == 0);\n        _;\n    }\n\n    function facet() public onlyNewAccount{\n        // Can either mint new tokens or take from the current supply\n        balances[this] -= issuingAmount;\n        issued[msg.sender] += issuingAmount;\n        balances[msg.sender] += issuingAmount;\n        emit TokensIssued(msg.sender, issuingAmount);\n    }\n\n    // Function that is called when a user or another contract wants to transfer funds .\n    function transfer(address _to, uint _value, bytes _data, string _custom_fallback) public returns(bool success) {\n\n        if (isContract(_to)) {\n            if (balanceOf(msg.sender) < _value) revert();\n            balances[msg.sender] = safeSub(balanceOf(msg.sender), _value);\n            balances[_to] = safeAdd(balanceOf(_to), _value);\n            assert(_to.call.value(0)(bytes4(keccak256(_custom_fallback)), msg.sender, _value, _data));\n            emit Transfer(msg.sender, _to, _value, _data);\n            return true;\n        } else {\n            return transferToAddress(_to, _value, _data);\n        }\n    }\n\n\n    // Function that is called when a user or another contract wants to transfer funds .\n    function transfer(address _to, uint _value, bytes _data) public returns(bool success) {\n\n        if (isContract(_to)) {\n            return transferToContract(_to, _value, _data);\n        } else {\n            return transferToAddress(_to, _value, _data);\n        }\n    }\n\n    // Standard function transfer similar to ERC20 transfer with no _data .\n    // Added due to backwards compatibility reasons .\n    function transfer(address _to, uint _value) public returns(bool success) {\n\n        //standard function transfer similar to ERC20 transfer with no _data\n        //added due to backwards compatibility reasons\n        bytes memory empty;\n        if (isContract(_to)) {\n            return transferToContract(_to, _value, empty);\n        } else {\n            return transferToAddress(_to, _value, empty);\n        }\n    }\n\n    //assemble the given address bytecode. If bytecode exists then the _addr is a contract.\n    function isContract(address _addr) private view returns(bool is_contract) {\n        uint length;\n        assembly {\n            //retrieve the size of the code on target address, this needs assembly\n            length: = extcodesize(_addr)\n        }\n        return (length > 0);\n    }\n\n    //function that is called when transaction target is an address\n    function transferToAddress(address _to, uint _value, bytes _data) private returns(bool success) {\n        if (balanceOf(msg.sender) < _value) revert();\n        balances[msg.sender] = safeSub(balanceOf(msg.sender), _value);\n        balances[_to] = safeAdd(balanceOf(_to), _value);\n        emit Transfer(msg.sender, _to, _value, _data);\n        return true;\n    }\n\n    //function that is called when transaction target is a contract\n    function transferToContract(address _to, uint _value, bytes _data) private returns(bool success) {\n        if (balanceOf(msg.sender) < _value) revert();\n        balances[msg.sender] = safeSub(balanceOf(msg.sender), _value);\n        balances[_to] = safeAdd(balanceOf(_to), _value);\n        ContractReceiver receiver = ContractReceiver(_to);\n        receiver.tokenFallback(msg.sender, _value, _data);\n        emit Transfer(msg.sender, _to, _value, _data);\n        return true;\n    }\n\n\n    function balanceOf(address _owner) public view returns(uint balance) {\n        return balances[_owner];\n    }\n}",
  "sourcePath": "/home/ryan/Documents/Repos/MVP/contracts/CompliantToken.sol",
  "compiler": {
    "name": "solc",
    "version": "0.4.21+commit.dfe3193c.Emscripten.clang"
  },
  "schemaVersion": "2.0.0",
  "updatedAt": "2018-04-11T12:56:51.393Z"
}