{
  "contractName": "ContractReceiver",
  "abi": [
    {
      "constant": true,
      "inputs": [
        {
          "name": "_from",
          "type": "address"
        },
        {
          "name": "_value",
          "type": "uint256"
        },
        {
          "name": "_data",
          "type": "bytes"
        }
      ],
      "name": "tokenFallback",
      "outputs": [],
      "payable": false,
      "stateMutability": "pure",
      "type": "function"
    }
  ],
  "bytecode": "0x6060604052341561000f57600080fd5b6102898061001e6000396000f3006060604052600436106100405763ffffffff7c0100000000000000000000000000000000000000000000000000000000600035041663c0ee0b8a8114610045575b600080fd5b341561005057600080fd5b6100b76004803573ffffffffffffffffffffffffffffffffffffffff169060248035919060649060443590810190830135806020601f820181900481020160405190810160405281815292919060208401838380828437509496506100b995505050505050565b005b6100c161021d565b73ffffffffffffffffffffffffffffffffffffffff841681526020810183905260408101829052600060188382815181106100f857fe5b016020015160f860020a900460f860020a0260f860020a900463ffffffff169060020a0260108460018151811061012b57fe5b016020015160f860020a900460f860020a0260f860020a900463ffffffff169060020a0260088560028151811061015e57fe5b016020015160f860020a900460f860020a0260f860020a900463ffffffff169060020a028560038151811061018f57fe5b016020015160f860020a900460f860020a0260f860020a90040101019050807c01000000000000000000000000000000000000000000000000000000000282606001907bffffffffffffffffffffffffffffffffffffffffffffffffffffffff191690817bffffffffffffffffffffffffffffffffffffffffffffffffffffffff1916815250505050505050565b6080604051908101604090815260008083526020830152810161023e61024b565b8152600060209091015290565b602060405190810160405260008152905600a165627a7a723058209ffa0e80ba1a16e96d140d964fcc4e41fd36e9389428b4eb56fef11dae78ab3c0029",
  "source": "pragma solidity ^ 0.4 .9;\n\n/*\n * Contract that is working with ERC223 tokens\n */\n\ncontract ContractReceiver {\n\n    struct TKN {\n        address sender;\n        uint value;\n        bytes data;\n        bytes4 sig;\n    }\n\n\n    function tokenFallback(address _from, uint _value, bytes _data) public pure {\n        TKN memory tkn;\n        tkn.sender = _from;\n        tkn.value = _value;\n        tkn.data = _data;\n        uint32 u = uint32(_data[3]) + (uint32(_data[2]) << 8) + (uint32(_data[1]) << 16) + (uint32(_data[0]) << 24);\n        tkn.sig = bytes4(u);\n\n        /* tkn variable is analogue of msg variable of Ether transaction\n         *  tkn.sender is person who initiated this token transaction   (analogue of msg.sender)\n         *  tkn.value the number of tokens that were sent   (analogue of msg.value)\n         *  tkn.data is data of token transaction   (analogue of msg.data)\n         *  tkn.sig is 4 bytes signature of function\n         *  if data of token transaction is a function execution\n         */\n    }\n}",
  "sourcePath": "/home/ryan/Documents/Repos/MVP/contracts/ERC223/Receiver_Interface.sol",
  "compiler": {
    "name": "solc",
    "version": "0.4.21+commit.dfe3193c.Emscripten.clang"
  },
  "schemaVersion": "2.0.0",
  "updatedAt": "2018-04-11T12:56:51.397Z"
}