{
  "contractName": "ETHConference",
  "abi": [
    {
      "constant": true,
      "inputs": [],
      "name": "numOfAdmins",
      "outputs": [
        {
          "name": "",
          "type": "uint256"
        }
      ],
      "payable": false,
      "stateMutability": "view",
      "type": "function"
    },
    {
      "constant": false,
      "inputs": [
        {
          "name": "oldAdmins",
          "type": "address[]"
        }
      ],
      "name": "revoke",
      "outputs": [],
      "payable": false,
      "stateMutability": "nonpayable",
      "type": "function"
    },
    {
      "constant": true,
      "inputs": [],
      "name": "name",
      "outputs": [
        {
          "name": "",
          "type": "string"
        }
      ],
      "payable": false,
      "stateMutability": "view",
      "type": "function"
    },
    {
      "constant": true,
      "inputs": [
        {
          "name": "",
          "type": "address"
        }
      ],
      "name": "participants",
      "outputs": [
        {
          "name": "participantName",
          "type": "string"
        },
        {
          "name": "addr",
          "type": "address"
        },
        {
          "name": "attended",
          "type": "bool"
        },
        {
          "name": "paid",
          "type": "bool"
        }
      ],
      "payable": false,
      "stateMutability": "view",
      "type": "function"
    },
    {
      "constant": true,
      "inputs": [],
      "name": "ended",
      "outputs": [
        {
          "name": "",
          "type": "bool"
        }
      ],
      "payable": false,
      "stateMutability": "view",
      "type": "function"
    },
    {
      "constant": true,
      "inputs": [
        {
          "name": "",
          "type": "uint256"
        }
      ],
      "name": "admins",
      "outputs": [
        {
          "name": "",
          "type": "address"
        }
      ],
      "payable": false,
      "stateMutability": "view",
      "type": "function"
    },
    {
      "constant": false,
      "inputs": [
        {
          "name": "newAdmins",
          "type": "address[]"
        }
      ],
      "name": "grant",
      "outputs": [],
      "payable": false,
      "stateMutability": "nonpayable",
      "type": "function"
    },
    {
      "constant": true,
      "inputs": [
        {
          "name": "admin",
          "type": "address"
        }
      ],
      "name": "isAdmin",
      "outputs": [
        {
          "name": "",
          "type": "bool"
        }
      ],
      "payable": false,
      "stateMutability": "view",
      "type": "function"
    },
    {
      "constant": true,
      "inputs": [],
      "name": "registered",
      "outputs": [
        {
          "name": "",
          "type": "uint256"
        }
      ],
      "payable": false,
      "stateMutability": "view",
      "type": "function"
    },
    {
      "constant": true,
      "inputs": [],
      "name": "getAdmins",
      "outputs": [
        {
          "name": "",
          "type": "address[]"
        }
      ],
      "payable": false,
      "stateMutability": "view",
      "type": "function"
    },
    {
      "constant": true,
      "inputs": [],
      "name": "endedAt",
      "outputs": [
        {
          "name": "",
          "type": "uint256"
        }
      ],
      "payable": false,
      "stateMutability": "view",
      "type": "function"
    },
    {
      "constant": true,
      "inputs": [],
      "name": "payoutAmount",
      "outputs": [
        {
          "name": "",
          "type": "uint256"
        }
      ],
      "payable": false,
      "stateMutability": "view",
      "type": "function"
    },
    {
      "constant": true,
      "inputs": [],
      "name": "limitOfParticipants",
      "outputs": [
        {
          "name": "",
          "type": "uint256"
        }
      ],
      "payable": false,
      "stateMutability": "view",
      "type": "function"
    },
    {
      "constant": false,
      "inputs": [],
      "name": "destroy",
      "outputs": [],
      "payable": false,
      "stateMutability": "nonpayable",
      "type": "function"
    },
    {
      "constant": true,
      "inputs": [],
      "name": "owner",
      "outputs": [
        {
          "name": "",
          "type": "address"
        }
      ],
      "payable": false,
      "stateMutability": "view",
      "type": "function"
    },
    {
      "constant": true,
      "inputs": [],
      "name": "coolingPeriod",
      "outputs": [
        {
          "name": "",
          "type": "uint256"
        }
      ],
      "payable": false,
      "stateMutability": "view",
      "type": "function"
    },
    {
      "constant": true,
      "inputs": [],
      "name": "cancelled",
      "outputs": [
        {
          "name": "",
          "type": "bool"
        }
      ],
      "payable": false,
      "stateMutability": "view",
      "type": "function"
    },
    {
      "constant": true,
      "inputs": [
        {
          "name": "",
          "type": "uint256"
        }
      ],
      "name": "participantsIndex",
      "outputs": [
        {
          "name": "",
          "type": "address"
        }
      ],
      "payable": false,
      "stateMutability": "view",
      "type": "function"
    },
    {
      "constant": true,
      "inputs": [],
      "name": "encryption",
      "outputs": [
        {
          "name": "",
          "type": "string"
        }
      ],
      "payable": false,
      "stateMutability": "view",
      "type": "function"
    },
    {
      "constant": true,
      "inputs": [],
      "name": "attended",
      "outputs": [
        {
          "name": "",
          "type": "uint256"
        }
      ],
      "payable": false,
      "stateMutability": "view",
      "type": "function"
    },
    {
      "constant": true,
      "inputs": [],
      "name": "deposit",
      "outputs": [
        {
          "name": "",
          "type": "uint256"
        }
      ],
      "payable": false,
      "stateMutability": "view",
      "type": "function"
    },
    {
      "constant": false,
      "inputs": [
        {
          "name": "newOwner",
          "type": "address"
        }
      ],
      "name": "transferOwnership",
      "outputs": [],
      "payable": false,
      "stateMutability": "nonpayable",
      "type": "function"
    },
    {
      "constant": false,
      "inputs": [
        {
          "name": "_recipient",
          "type": "address"
        }
      ],
      "name": "destroyAndSend",
      "outputs": [],
      "payable": false,
      "stateMutability": "nonpayable",
      "type": "function"
    },
    {
      "anonymous": false,
      "inputs": [
        {
          "indexed": false,
          "name": "addr",
          "type": "address"
        },
        {
          "indexed": false,
          "name": "participantName",
          "type": "string"
        },
        {
          "indexed": false,
          "name": "_encryption",
          "type": "string"
        }
      ],
      "name": "RegisterEvent",
      "type": "event"
    },
    {
      "anonymous": false,
      "inputs": [
        {
          "indexed": false,
          "name": "addr",
          "type": "address"
        }
      ],
      "name": "AttendEvent",
      "type": "event"
    },
    {
      "anonymous": false,
      "inputs": [
        {
          "indexed": false,
          "name": "_payout",
          "type": "uint256"
        }
      ],
      "name": "PaybackEvent",
      "type": "event"
    },
    {
      "anonymous": false,
      "inputs": [
        {
          "indexed": false,
          "name": "addr",
          "type": "address"
        },
        {
          "indexed": false,
          "name": "_payout",
          "type": "uint256"
        }
      ],
      "name": "WithdrawEvent",
      "type": "event"
    },
    {
      "anonymous": false,
      "inputs": [],
      "name": "CancelEvent",
      "type": "event"
    },
    {
      "anonymous": false,
      "inputs": [
        {
          "indexed": false,
          "name": "addr",
          "type": "address"
        },
        {
          "indexed": false,
          "name": "leftOver",
          "type": "uint256"
        }
      ],
      "name": "ClearEvent",
      "type": "event"
    },
    {
      "anonymous": false,
      "inputs": [
        {
          "indexed": true,
          "name": "grantee",
          "type": "address"
        }
      ],
      "name": "AdminGranted",
      "type": "event"
    },
    {
      "anonymous": false,
      "inputs": [
        {
          "indexed": true,
          "name": "grantee",
          "type": "address"
        }
      ],
      "name": "AdminRevoked",
      "type": "event"
    },
    {
      "anonymous": false,
      "inputs": [
        {
          "indexed": true,
          "name": "previousOwner",
          "type": "address"
        },
        {
          "indexed": true,
          "name": "newOwner",
          "type": "address"
        }
      ],
      "name": "OwnershipTransferred",
      "type": "event"
    },
    {
      "constant": false,
      "inputs": [
        {
          "name": "_name",
          "type": "string"
        },
        {
          "name": "_deposit",
          "type": "uint256"
        },
        {
          "name": "_limitOfParticipants",
          "type": "uint256"
        },
        {
          "name": "_coolingPeriod",
          "type": "uint256"
        },
        {
          "name": "_encryption",
          "type": "string"
        }
      ],
      "name": "Conference",
      "outputs": [],
      "payable": false,
      "stateMutability": "nonpayable",
      "type": "function"
    },
    {
      "constant": false,
      "inputs": [
        {
          "name": "_participant",
          "type": "string"
        },
        {
          "name": "_encrypted",
          "type": "string"
        }
      ],
      "name": "registerWithEncryption",
      "outputs": [],
      "payable": true,
      "stateMutability": "payable",
      "type": "function"
    },
    {
      "constant": false,
      "inputs": [
        {
          "name": "_participant",
          "type": "string"
        }
      ],
      "name": "register",
      "outputs": [],
      "payable": true,
      "stateMutability": "payable",
      "type": "function"
    },
    {
      "constant": false,
      "inputs": [],
      "name": "withdraw",
      "outputs": [],
      "payable": false,
      "stateMutability": "nonpayable",
      "type": "function"
    },
    {
      "constant": true,
      "inputs": [],
      "name": "totalBalance",
      "outputs": [
        {
          "name": "",
          "type": "uint256"
        }
      ],
      "payable": false,
      "stateMutability": "view",
      "type": "function"
    },
    {
      "constant": true,
      "inputs": [
        {
          "name": "_addr",
          "type": "address"
        }
      ],
      "name": "isRegistered",
      "outputs": [
        {
          "name": "",
          "type": "bool"
        }
      ],
      "payable": false,
      "stateMutability": "view",
      "type": "function"
    },
    {
      "constant": true,
      "inputs": [
        {
          "name": "_addr",
          "type": "address"
        }
      ],
      "name": "isAttended",
      "outputs": [
        {
          "name": "",
          "type": "bool"
        }
      ],
      "payable": false,
      "stateMutability": "view",
      "type": "function"
    },
    {
      "constant": true,
      "inputs": [
        {
          "name": "_addr",
          "type": "address"
        }
      ],
      "name": "isPaid",
      "outputs": [
        {
          "name": "",
          "type": "bool"
        }
      ],
      "payable": false,
      "stateMutability": "view",
      "type": "function"
    },
    {
      "constant": true,
      "inputs": [],
      "name": "payout",
      "outputs": [
        {
          "name": "",
          "type": "uint256"
        }
      ],
      "payable": false,
      "stateMutability": "view",
      "type": "function"
    },
    {
      "constant": false,
      "inputs": [],
      "name": "payback",
      "outputs": [],
      "payable": false,
      "stateMutability": "nonpayable",
      "type": "function"
    },
    {
      "constant": false,
      "inputs": [],
      "name": "cancel",
      "outputs": [],
      "payable": false,
      "stateMutability": "nonpayable",
      "type": "function"
    },
    {
      "constant": false,
      "inputs": [],
      "name": "clear",
      "outputs": [],
      "payable": false,
      "stateMutability": "nonpayable",
      "type": "function"
    },
    {
      "constant": false,
      "inputs": [
        {
          "name": "_limitOfParticipants",
          "type": "uint256"
        }
      ],
      "name": "setLimitOfParticipants",
      "outputs": [],
      "payable": false,
      "stateMutability": "nonpayable",
      "type": "function"
    },
    {
      "constant": false,
      "inputs": [
        {
          "name": "_addresses",
          "type": "address[]"
        }
      ],
      "name": "attend",
      "outputs": [],
      "payable": false,
      "stateMutability": "nonpayable",
      "type": "function"
    }
  ],
  "bytecode": "0x606060405260008054600160a060020a033316600160a060020a031990911617905561194e806100306000396000f3006060604052600436106101cc5763ffffffff7c01000000000000000000000000000000000000000000000000000000006000350416630191dc9281146101d157806305f203d9146101f657806306fdde031461024757806309e69ede146102d157806312fa6feb1461038957806314bfd6d0146103b05780631e3c9352146103e257806324d7806c146104315780632de40ce31461045057806331ae450b146104635780633ccfd60b146104c95780633d6a71e4146104dc5780634dcc889d146104ef57806352efea6e146105925780635d27bff3146105a557806363bd1d4a146105c45780636b46c8c3146105d75780636d006ae8146105ea5780636ded82f8146105fd57806383197ef01461061c578063854bec871461062f5780638da5cb5b146106425780639328beee14610655578063982495c7146106685780639989a5ae146106865780639a82a09a1461069c5780639b25cacb146106af578063a07f3a56146106c5578063a531d362146106e4578063ad7a672f146106f7578063b5e10e9a1461070a578063c3c5a5471461071d578063d0e30db01461073c578063ea8a1af01461074f578063f2c298be14610762578063f2fde38b14610775578063f5074f4114610794575b600080fd5b34156101dc57600080fd5b6101e46107b3565b60405190815260200160405180910390f35b341561020157600080fd5b61024560046024813581810190830135806020818102016040519081016040528093929190818152602001838360200280828437509496506107ba95505050505050565b005b341561025257600080fd5b61025a61092a565b60405160208082528190810183818151815260200191508051906020019080838360005b8381101561029657808201518382015260200161027e565b50505050905090810190601f1680156102c35780820380516001836020036101000a031916815260200191505b509250505060405180910390f35b34156102dc57600080fd5b6102f0600160a060020a03600435166109c8565b604051600160a060020a03841660208201528215156040820152811515606082015260808082528190810186818151815260200191508051906020019080838360005b8381101561034b578082015183820152602001610333565b50505050905090810190601f1680156103785780820380516001836020036101000a031916815260200191505b509550505050505060405180910390f35b341561039457600080fd5b61039c610ac6565b604051901515815260200160405180910390f35b34156103bb57600080fd5b6103c6600435610acf565b604051600160a060020a03909116815260200160405180910390f35b34156103ed57600080fd5b6102456004602481358181019083013580602081810201604051908101604052809392919081815260200183836020028082843750949650610af795505050505050565b341561043c57600080fd5b61039c600160a060020a0360043516610bd2565b341561045b57600080fd5b6101e4610c52565b341561046e57600080fd5b610476610c58565b60405160208082528190810183818151815260200191508051906020019060200280838360005b838110156104b557808201518382015260200161049d565b505050509050019250505060405180910390f35b34156104d457600080fd5b610245610d2a565b34156104e757600080fd5b6101e4610e9c565b34156104fa57600080fd5b61024560046024813581810190830135806020601f820181900481020160405190810160405281815292919060208401838380828437509496863596602080820135975060408083013597509295506080820194506060909101358501808201935035918291601f830181900481020190519081016040528181529291906020840183838082843750949650610ea295505050505050565b341561059d57600080fd5b610245610f78565b6102456024600480358281019290820135918135918201910135611059565b34156105cf57600080fd5b6101e4611125565b34156105e257600080fd5b6101e4611154565b34156105f557600080fd5b6101e461115a565b341561060857600080fd5b61039c600160a060020a0360043516611160565b341561062757600080fd5b6102456111b1565b341561063a57600080fd5b6102456111da565b341561064d57600080fd5b6103c6611258565b341561066057600080fd5b6101e4611267565b341561067357600080fd5b610245600480356024810191013561126d565b341561069157600080fd5b61024560043561138b565b34156106a757600080fd5b61039c6113bb565b34156106ba57600080fd5b6103c66004356113c9565b34156106d057600080fd5b61039c600160a060020a03600435166113e4565b34156106ef57600080fd5b61025a611430565b341561070257600080fd5b6101e461149b565b341561071557600080fd5b6101e46114a9565b341561072857600080fd5b61039c600160a060020a03600435166114af565b341561074757600080fd5b6101e46114d2565b341561075a57600080fd5b6102456114d8565b6102456004803560248101910135611553565b341561078057600080fd5b610245600160a060020a036004351661160e565b341561079f57600080fd5b610245600160a060020a03600435166116a9565b6001545b90565b60008054819033600160a060020a039081169116146107d857600080fd5b600091505b8251821015610925575060005b60015481101561091a5782828151811061080057fe5b90602001906020020151600160a060020a031660018281548110151561082257fe5b600091825260209091200154600160a060020a0316141561090f5760018054600019810190811061084f57fe5b60009182526020909120015460018054600160a060020a03909216918390811061087557fe5b6000918252602090912001805473ffffffffffffffffffffffffffffffffffffffff1916600160a060020a039290921691909117905560018054906108be906000198301611854565b508282815181106108cb57fe5b90602001906020020151600160a060020a03167f631ff1c4e1a02c54b480a34b810e03bcee61fe38efcb243930a7f820914923e260405160405180910390a261091a565b8160010191506107ea565b6001909101906107dd565b505050565b60028054600181600116156101000203166002900480601f0160208091040260200160405190810160405280929190818152602001828054600181600116156101000203166002900480156109c05780601f10610995576101008083540402835291602001916109c0565b820191906000526020600020905b8154815290600101906020018083116109a357829003601f168201915b505050505081565b600c602052806000526040600020600091509050806000018054600181600116156101000203166002900480601f016020809104026020016040519081016040528092919081815260200182805460018160011615610100020316600290048015610a745780601f10610a4957610100808354040283529160200191610a74565b820191906000526020600020905b815481529060010190602001808311610a5757829003601f168201915b50505060019093015491925050600160a060020a0381169060ff740100000000000000000000000000000000000000008204811691750100000000000000000000000000000000000000000090041684565b60075460ff1681565b6001805482908110610add57fe5b600091825260209091200154600160a060020a0316905081565b6000805433600160a060020a03908116911614610b1357600080fd5b5060005b8151811015610bce5760018054808201610b318382611854565b91600052602060002090016000848481518110610b4a57fe5b90602001906020020151909190916101000a815481600160a060020a030219169083600160a060020a0316021790555050818181518110610b8757fe5b90602001906020020151600160a060020a03167f1c4e23de8d72c94b22992bd4d7b6786b215ba876af214ff63e6a0ca38fc97af460405160405180910390a2600101610b17565b5050565b600080548190600160a060020a0384811691161415610bf45760019150610c4c565b5060005b600154811015610c475782600160a060020a0316600182815481101515610c1b57fe5b600091825260209091200154600160a060020a03161415610c3f5760019150610c4c565b600101610bf8565b600091505b50919050565b60055481565b610c60611878565b610c68611878565b6001805460009101604051805910610c7d5750595b90808252806020026020018201604052509150600090505b600154811015610ced576001805482908110610cad57fe5b600091825260209091200154600160a060020a0316828281518110610cce57fe5b600160a060020a03909216602092830290910190910152600101610c95565b600054600154600160a060020a0390911690839081518110610d0b57fe5b600160a060020a03929092166020928302919091019091015250919050565b60075460009060ff161515610d3e57600080fd5b600a5460009011610d4e57600080fd5b50600160a060020a033381166000818152600c60205260409020600181015490921614610d7a57600080fd5b600754610100900460ff1680610dac5750600181015474010000000000000000000000000000000000000000900460ff165b1515610db757600080fd5b60018101547501000000000000000000000000000000000000000000900460ff1615610de257600080fd5b60018101805475ff000000000000000000000000000000000000000000191675010000000000000000000000000000000000000000001790819055600a54600160a060020a039091169080156108fc0290604051600060405180830381858888f193505050501515610e5357600080fd5b7f5dba113b49cfa7c90315e8e604e6b506f7abcb909b01dcb19ec39005086e68fc33600a54604051600160a060020a03909216825260208201526040908101905180910390a150565b60085481565b845115610ec2576002858051610ebc92916020019061188a565b50610f0b565b60408051908101604052600481527f546573740000000000000000000000000000000000000000000000000000000060208201526002908051610f0992916020019061188a565b505b8315610f1b576003849055610f27565b66470de4df8200006003555b8215610f37576004839055610f3d565b60146004555b8115610f4d576009829055610f55565b62093a806009555b805115610f7157600b818051610f6f92916020019061188a565b505b5050505050565b6000805433600160a060020a03908116911614610f9457600080fd5b60075460ff161515610fa557600080fd5b600954600854014211610fb757600080fd5b60075460ff161515610fc857600080fd5b610fd061149b565b600054909150600160a060020a031681156108fc0282604051600060405180830381858888f19350505050151561100657600080fd5b6000547f61355a34c3bc2e502a24eba7ad2fb0fd0d05c4f71de8cb041fbe39cd3649665e90600160a060020a031682604051600160a060020a03909216825260208201526040908101905180910390a150565b60075460ff161561106957600080fd5b6110a184848080601f0160208091040260200160405190810160405281815292919060208401838380828437506116d0945050505050565b7f8d272c75acbe64f584f00b43ea2e4ac139abac8e8b8f118e5588e14bbb5c40313385858585604051600160a060020a0386168152606060208201818152908201859052604082016080830187878082843790910184810383528581526020019050858580828437820191505097505050505050505060405180910390a150505050565b60006006546000141561113a575060006107b7565b60065461114561149b565b81151561114e57fe5b04905090565b600a5481565b60045481565b600061116b826114af565b80156111ab5750600160a060020a0382166000908152600c60205260409020600101547501000000000000000000000000000000000000000000900460ff165b92915050565b60005433600160a060020a039081169116146111cc57600080fd5b600054600160a060020a0316ff5b60005433600160a060020a039081169116146111f557600080fd5b60075460ff161561120557600080fd5b61120d611125565b600a8190556007805460ff19166001179055426008557fb7152de35affc741a6b2355d37e9caf51fe847cacfccd414be5e15996ff7e6c69060405190815260200160405180910390a1565b600054600160a060020a031681565b60095481565b60008061127933610bd2565b151561128457600080fd5b60075460ff161561129457600080fd5b600091505b82821015611385578383838181106112ad57fe5b90506020020135600160a060020a031690506112c8816114af565b15156112d357600080fd5b6112dc816113e4565b156112e657600080fd5b7f1c5e7a37dd4095194684d8f835d2c81b686d64d685032055a7cd02edc7c49ed881604051600160a060020a03909116815260200160405180910390a1600160a060020a0381166000908152600c602052604090206001908101805474ff000000000000000000000000000000000000000019167401000000000000000000000000000000000000000017905560068054820190559190910190611299565b50505050565b60005433600160a060020a039081169116146113a657600080fd5b60075460ff16156113b657600080fd5b600455565b600754610100900460ff1681565b600d60205260009081526040902054600160a060020a031681565b60006113ef826114af565b80156111ab575050600160a060020a03166000908152600c602052604090206001015474010000000000000000000000000000000000000000900460ff1690565b600b8054600181600116156101000203166002900480601f0160208091040260200160405190810160405280929190818152602001828054600181600116156101000203166002900480156109c05780601f10610995576101008083540402835291602001916109c0565b600160a060020a0330163190565b60065481565b600160a060020a039081166000908152600c602052604090206001015416151590565b60035481565b60005433600160a060020a039081169116146114f357600080fd5b60075460ff161561150357600080fd5b600354600a556007805460ff1961ff001990911661010017166001179055426008557faac5ae2dfd439bb6c2f88b2d8af5b285cfee7584ad0d13ae7c00c1226c7c4c7b60405160405180910390a1565b60075460ff161561156357600080fd5b61159b82828080601f0160208091040260200160405190810160405281815292919060208401838380828437506116d0945050505050565b7f8d272c75acbe64f584f00b43ea2e4ac139abac8e8b8f118e5588e14bbb5c4031338383604051600160a060020a03841681526060602082018181529082018390526040820160808301858580828437909101938403909152505060008152604090810193509150505180910390a15050565b60005433600160a060020a0390811691161461162957600080fd5b600160a060020a038116151561163e57600080fd5b600054600160a060020a0380831691167f8be0079c531659141344cd1fd0a4f28419497f9722a3daafe3b4186f6b6457e060405160405180910390a36000805473ffffffffffffffffffffffffffffffffffffffff1916600160a060020a0392909216919091179055565b60005433600160a060020a039081169116146116c457600080fd5b80600160a060020a0316ff5b60035434146116de57600080fd5b600454600554106116ee57600080fd5b6116f7336114af565b1561170157600080fd5b60058054600101908190556000908152600d602052604090819020805473ffffffffffffffffffffffffffffffffffffffff191633600160a060020a0316179055608090519081016040908152828252600160a060020a0333166020808401829052600083850181905260608501819052918252600c90522081518190805161178e92916020019061188a565b50602082015160018201805473ffffffffffffffffffffffffffffffffffffffff1916600160a060020a03929092169190911790556040820151600182018054911515740100000000000000000000000000000000000000000274ff00000000000000000000000000000000000000001990921691909117905560608201516001909101805491151575010000000000000000000000000000000000000000000275ff000000000000000000000000000000000000000000199092169190911790555050565b81548183558181151161092557600083815260209020610925918101908301611908565b60206040519081016040526000815290565b828054600181600116156101000203166002900490600052602060002090601f016020900481019282601f106118cb57805160ff19168380011785556118f8565b828001600101855582156118f8579182015b828111156118f85782518255916020019190600101906118dd565b50611904929150611908565b5090565b6107b791905b80821115611904576000815560010161190e5600a165627a7a723058208c9305df27f5ea4eac345f8f4b63cebcb707cc3e6d97576525894dc7f54490880029",
  "source": "pragma solidity ^ 0.4 .19;\n\nimport './GroupAdmin.sol';\nimport './zeppelin/lifecycle/Destructible.sol';\n\ncontract ETHConference is Destructible, GroupAdmin {\n\tstring public name;\n\tuint256 public deposit;\n\tuint public limitOfParticipants;\n\tuint public registered;\n\tuint public attended;\n\tbool public ended;\n\tbool public cancelled;\n\tuint public endedAt;\n\tuint public coolingPeriod;\n\tuint256 public payoutAmount;\n\tstring public encryption;\n\n\tmapping(address => Participant) public participants;\n\tmapping(uint => address) public participantsIndex;\n\tbool paid;\n\n\tstruct Participant {\n\t\tstring participantName;\n\t\taddress addr;\n\t\tbool attended;\n\t\tbool paid;\n\t}\n\n\tevent RegisterEvent(address addr, string participantName, string _encryption);\n\tevent AttendEvent(address addr);\n\tevent PaybackEvent(uint256 _payout);\n\tevent WithdrawEvent(address addr, uint256 _payout);\n\tevent CancelEvent();\n\tevent ClearEvent(address addr, uint256 leftOver);\n\n\t/* Modifiers */\n\tmodifier onlyActive {\n\t\trequire(!ended);\n\t\t_;\n\t}\n\n\tmodifier onlyEnded {\n\t\trequire(ended);\n\t\t_;\n\t}\n\n\t/* Public functions */\n\n\tfunction Conference(\n\t\tstring _name,\n\t\tuint256 _deposit,\n\t\tuint _limitOfParticipants,\n\t\tuint _coolingPeriod,\n\t\tstring _encryption\n\t) public {\n\t\tif (bytes(_name).length != 0) {\n\t\t\tname = _name;\n\t\t} else {\n\t\t\tname = 'Test';\n\t\t}\n\n\t\tif (_deposit != 0) {\n\t\t\tdeposit = _deposit;\n\t\t} else {\n\t\t\tdeposit = 0.02 ether;\n\t\t}\n\n\t\tif (_limitOfParticipants != 0) {\n\t\t\tlimitOfParticipants = _limitOfParticipants;\n\t\t} else {\n\t\t\tlimitOfParticipants = 20;\n\t\t}\n\n\t\tif (_coolingPeriod != 0) {\n\t\t\tcoolingPeriod = _coolingPeriod;\n\t\t} else {\n\t\t\tcoolingPeriod = 1 weeks;\n\t\t}\n\n\t\tif (bytes(_encryption).length != 0) {\n\t\t\tencryption = _encryption;\n\t\t}\n\t}\n\n\tfunction registerWithEncryption(string _participant, string _encrypted) external payable onlyActive {\n\t\tregisterInternal(_participant);\n\t\temit RegisterEvent(msg.sender, _participant, _encrypted);\n\t}\n\n\tfunction register(string _participant) external payable onlyActive {\n\t\tregisterInternal(_participant);\n\t\temit RegisterEvent(msg.sender, _participant, '');\n\t}\n\n\tfunction registerInternal(string _participant) internal {\n\t\trequire(msg.value == deposit);\n\t\trequire(registered < limitOfParticipants);\n\t\trequire(!isRegistered(msg.sender));\n\n\t\tregistered++;\n\t\tparticipantsIndex[registered] = msg.sender;\n\t\tparticipants[msg.sender] = Participant(_participant, msg.sender, false, false);\n\t}\n\n\tfunction withdraw() external onlyEnded {\n\t\trequire(payoutAmount > 0);\n\t\tParticipant storage participant = participants[msg.sender];\n\t\trequire(participant.addr == msg.sender);\n\t\trequire(cancelled || participant.attended);\n\t\trequire(participant.paid == false);\n\n\t\tparticipant.paid = true;\n\t\tparticipant.addr.transfer(payoutAmount);\n\t\temit WithdrawEvent(msg.sender, payoutAmount);\n\t}\n\n\t/* Constants */\n\tfunction totalBalance() constant public returns(uint256) {\n\t\treturn address(this).balance;\n\t}\n\n\tfunction isRegistered(address _addr) constant public returns(bool) {\n\t\treturn participants[_addr].addr != address(0);\n\t}\n\n\tfunction isAttended(address _addr) constant public returns(bool) {\n\t\treturn isRegistered(_addr) && participants[_addr].attended;\n\t}\n\n\tfunction isPaid(address _addr) constant public returns(bool) {\n\t\treturn isRegistered(_addr) && participants[_addr].paid;\n\t}\n\n\tfunction payout() constant public returns(uint256) {\n\t\tif (attended == 0) return 0;\n\t\treturn uint(totalBalance()) / uint(attended);\n\t}\n\n\t/* Admin only functions */\n\n\tfunction payback() external onlyOwner onlyActive {\n\t\tpayoutAmount = payout();\n\t\tended = true;\n\t\tendedAt = now;\n\t\temit PaybackEvent(payoutAmount);\n\t}\n\n\tfunction cancel() external onlyOwner onlyActive {\n\t\tpayoutAmount = deposit;\n\t\tcancelled = true;\n\t\tended = true;\n\t\tendedAt = now;\n\t\temit CancelEvent();\n\t}\n\n\t/* return the remaining of balance if there are any unclaimed after cooling period */\n\tfunction clear() external onlyOwner onlyEnded {\n\t\trequire(now > endedAt + coolingPeriod);\n\t\trequire(ended);\n\t\tuint leftOver = totalBalance();\n\t\towner.transfer(leftOver);\n\t\temit ClearEvent(owner, leftOver);\n\t}\n\n\tfunction setLimitOfParticipants(uint _limitOfParticipants) external onlyOwner onlyActive {\n\t\tlimitOfParticipants = _limitOfParticipants;\n\t}\n\n\tfunction attend(address[] _addresses) external onlyAdmin onlyActive {\n\t\tfor (uint i = 0; i < _addresses.length; i++) {\n\t\t\taddress _addr = _addresses[i];\n\t\t\trequire(isRegistered(_addr));\n\t\t\trequire(!isAttended(_addr));\n\t\t\temit AttendEvent(_addr);\n\t\t\tparticipants[_addr].attended = true;\n\t\t\tattended++;\n\t\t}\n\t}\n}",
  "sourcePath": "/home/ryan/Documents/Repos/MVP/contracts/ETHConference.sol",
  "compiler": {
    "name": "solc",
    "version": "0.4.21+commit.dfe3193c.Emscripten.clang"
  },
  "schemaVersion": "2.0.0",
  "updatedAt": "2018-04-11T11:43:15.521Z"
}