{
  "contractName": "GroupAdmin",
  "abi": [
    {
      "constant": true,
      "inputs": [
        {
          "name": "",
          "type": "uint256"
        }
      ],
      "name": "admins",
      "outputs": [
        {
          "name": "",
          "type": "address"
        }
      ],
      "payable": false,
      "stateMutability": "view",
      "type": "function"
    },
    {
      "constant": true,
      "inputs": [],
      "name": "owner",
      "outputs": [
        {
          "name": "",
          "type": "address"
        }
      ],
      "payable": false,
      "stateMutability": "view",
      "type": "function"
    },
    {
      "constant": false,
      "inputs": [
        {
          "name": "newOwner",
          "type": "address"
        }
      ],
      "name": "transferOwnership",
      "outputs": [],
      "payable": false,
      "stateMutability": "nonpayable",
      "type": "function"
    },
    {
      "anonymous": false,
      "inputs": [
        {
          "indexed": true,
          "name": "grantee",
          "type": "address"
        }
      ],
      "name": "AdminGranted",
      "type": "event"
    },
    {
      "anonymous": false,
      "inputs": [
        {
          "indexed": true,
          "name": "grantee",
          "type": "address"
        }
      ],
      "name": "AdminRevoked",
      "type": "event"
    },
    {
      "anonymous": false,
      "inputs": [
        {
          "indexed": true,
          "name": "previousOwner",
          "type": "address"
        },
        {
          "indexed": true,
          "name": "newOwner",
          "type": "address"
        }
      ],
      "name": "OwnershipTransferred",
      "type": "event"
    },
    {
      "constant": false,
      "inputs": [
        {
          "name": "newAdmins",
          "type": "address[]"
        }
      ],
      "name": "grant",
      "outputs": [],
      "payable": false,
      "stateMutability": "nonpayable",
      "type": "function"
    },
    {
      "constant": false,
      "inputs": [
        {
          "name": "oldAdmins",
          "type": "address[]"
        }
      ],
      "name": "revoke",
      "outputs": [],
      "payable": false,
      "stateMutability": "nonpayable",
      "type": "function"
    },
    {
      "constant": true,
      "inputs": [],
      "name": "getAdmins",
      "outputs": [
        {
          "name": "",
          "type": "address[]"
        }
      ],
      "payable": false,
      "stateMutability": "view",
      "type": "function"
    },
    {
      "constant": true,
      "inputs": [],
      "name": "numOfAdmins",
      "outputs": [
        {
          "name": "",
          "type": "uint256"
        }
      ],
      "payable": false,
      "stateMutability": "view",
      "type": "function"
    },
    {
      "constant": true,
      "inputs": [
        {
          "name": "admin",
          "type": "address"
        }
      ],
      "name": "isAdmin",
      "outputs": [
        {
          "name": "",
          "type": "bool"
        }
      ],
      "payable": false,
      "stateMutability": "view",
      "type": "function"
    }
  ],
  "bytecode": "0x606060405260008054600160a060020a033316600160a060020a031990911617905561074a806100306000396000f30060606040526004361061008d5763ffffffff7c01000000000000000000000000000000000000000000000000000000006000350416630191dc92811461009257806305f203d9146100b757806314bfd6d0146101085780631e3c93521461013a57806324d7806c1461018957806331ae450b146101bc5780638da5cb5b14610222578063f2fde38b14610235575b600080fd5b341561009d57600080fd5b6100a5610254565b60405190815260200160405180910390f35b34156100c257600080fd5b610106600460248135818101908301358060208181020160405190810160405280939291908181526020018383602002808284375094965061025b95505050505050565b005b341561011357600080fd5b61011e6004356103cb565b604051600160a060020a03909116815260200160405180910390f35b341561014557600080fd5b61010660046024813581810190830135806020818102016040519081016040528093929190818152602001838360200280828437509496506103f395505050505050565b341561019457600080fd5b6101a8600160a060020a03600435166104ce565b604051901515815260200160405180910390f35b34156101c757600080fd5b6101cf61054e565b60405160208082528190810183818151815260200191508051906020019060200280838360005b8381101561020e5780820151838201526020016101f6565b505050509050019250505060405180910390f35b341561022d57600080fd5b61011e610620565b341561024057600080fd5b610106600160a060020a036004351661062f565b6001545b90565b60008054819033600160a060020a0390811691161461027957600080fd5b600091505b82518210156103c6575060005b6001548110156103bb578282815181106102a157fe5b90602001906020020151600160a060020a03166001828154811015156102c357fe5b600091825260209091200154600160a060020a031614156103b0576001805460001981019081106102f057fe5b60009182526020909120015460018054600160a060020a03909216918390811061031657fe5b6000918252602090912001805473ffffffffffffffffffffffffffffffffffffffff1916600160a060020a0392909216919091179055600180549061035f9060001983016106ca565b5082828151811061036c57fe5b90602001906020020151600160a060020a03167f631ff1c4e1a02c54b480a34b810e03bcee61fe38efcb243930a7f820914923e260405160405180910390a26103bb565b81600101915061028b565b60019091019061027e565b505050565b60018054829081106103d957fe5b600091825260209091200154600160a060020a0316905081565b6000805433600160a060020a0390811691161461040f57600080fd5b5060005b81518110156104ca576001805480820161042d83826106ca565b9160005260206000209001600084848151811061044657fe5b90602001906020020151909190916101000a815481600160a060020a030219169083600160a060020a031602179055505081818151811061048357fe5b90602001906020020151600160a060020a03167f1c4e23de8d72c94b22992bd4d7b6786b215ba876af214ff63e6a0ca38fc97af460405160405180910390a2600101610413565b5050565b600080548190600160a060020a03848116911614156104f05760019150610548565b5060005b6001548110156105435782600160a060020a031660018281548110151561051757fe5b600091825260209091200154600160a060020a0316141561053b5760019150610548565b6001016104f4565b600091505b50919050565b6105566106ee565b61055e6106ee565b60018054600091016040518059106105735750595b90808252806020026020018201604052509150600090505b6001548110156105e35760018054829081106105a357fe5b600091825260209091200154600160a060020a03168282815181106105c457fe5b600160a060020a0390921660209283029091019091015260010161058b565b600054600154600160a060020a039091169083908151811061060157fe5b600160a060020a03929092166020928302919091019091015250919050565b600054600160a060020a031681565b60005433600160a060020a0390811691161461064a57600080fd5b600160a060020a038116151561065f57600080fd5b600054600160a060020a0380831691167f8be0079c531659141344cd1fd0a4f28419497f9722a3daafe3b4186f6b6457e060405160405180910390a36000805473ffffffffffffffffffffffffffffffffffffffff1916600160a060020a0392909216919091179055565b8154818355818115116103c6576000838152602090206103c6918101908301610700565b60206040519081016040526000815290565b61025891905b8082111561071a5760008155600101610706565b50905600a165627a7a72305820fdb885ee43ee8e266738c73656c217f4fb51acd844cd15027101246520aeed4c0029",
  "source": "pragma solidity ^ 0.4 .19;\nimport './zeppelin/ownership/Ownable.sol';\n\n/**\n * @title GroupAdmin\n * @dev The contract allows multiple addresses to perform as admin.\n */\ncontract GroupAdmin is Ownable {\n  event AdminGranted(address indexed grantee);\n  event AdminRevoked(address indexed grantee);\n  address[] public admins;\n\n  modifier onlyAdmin() {\n    require(isAdmin(msg.sender));\n    _;\n  }\n\n  function grant(address[] newAdmins) public onlyOwner {\n    for (uint i = 0; i < newAdmins.length; i++) {\n      admins.push(newAdmins[i]);\n      emit AdminGranted(newAdmins[i]);\n    }\n  }\n\n  function revoke(address[] oldAdmins) public onlyOwner {\n    for (uint i = 0; i < oldAdmins.length; i++) {\n      for (uint j = 0; j < admins.length; ++i) {\n        if (admins[j] == oldAdmins[i]) {\n          admins[j] = admins[admins.length - 1];\n          admins.length--;\n          emit AdminRevoked(oldAdmins[i]);\n          break;\n        }\n      }\n    }\n  }\n\n  function getAdmins() view public returns(address[]) {\n    address[] memory adminsList = new address[](admins.length + 1);\n    for (uint i = 0; i < admins.length; i++) {\n      adminsList[i] = admins[i];\n    }\n    adminsList[admins.length] = owner;\n    return adminsList;\n  }\n\n  function numOfAdmins() view public returns(uint) {\n    return admins.length;\n  }\n\n\n  function isAdmin(address admin) public view returns(bool) {\n    if (admin == owner) return true;\n    for (uint i = 0; i < admins.length; i++) {\n      if (admins[i] == admin) {\n        return true;\n      }\n    }\n    return false;\n  }\n}",
  "sourcePath": "/home/ryan/Documents/Repos/MVP/contracts/GroupAdmin.sol",
  "compiler": {
    "name": "solc",
    "version": "0.4.21+commit.dfe3193c.Emscripten.clang"
  },
  "schemaVersion": "2.0.0",
  "updatedAt": "2018-04-11T12:56:51.401Z"
}