{
  "contractName": "TokenConference",
  "abi": [
    {
      "constant": true,
      "inputs": [],
      "name": "numOfAdmins",
      "outputs": [
        {
          "name": "",
          "type": "uint256"
        }
      ],
      "payable": false,
      "stateMutability": "view",
      "type": "function"
    },
    {
      "constant": false,
      "inputs": [
        {
          "name": "oldAdmins",
          "type": "address[]"
        }
      ],
      "name": "revoke",
      "outputs": [],
      "payable": false,
      "stateMutability": "nonpayable",
      "type": "function"
    },
    {
      "constant": true,
      "inputs": [],
      "name": "name",
      "outputs": [
        {
          "name": "",
          "type": "string"
        }
      ],
      "payable": false,
      "stateMutability": "view",
      "type": "function"
    },
    {
      "constant": true,
      "inputs": [
        {
          "name": "",
          "type": "address"
        }
      ],
      "name": "participants",
      "outputs": [
        {
          "name": "participantName",
          "type": "string"
        },
        {
          "name": "addr",
          "type": "address"
        },
        {
          "name": "attended",
          "type": "bool"
        },
        {
          "name": "paid",
          "type": "bool"
        }
      ],
      "payable": false,
      "stateMutability": "view",
      "type": "function"
    },
    {
      "constant": true,
      "inputs": [],
      "name": "ended",
      "outputs": [
        {
          "name": "",
          "type": "bool"
        }
      ],
      "payable": false,
      "stateMutability": "view",
      "type": "function"
    },
    {
      "constant": true,
      "inputs": [
        {
          "name": "",
          "type": "uint256"
        }
      ],
      "name": "admins",
      "outputs": [
        {
          "name": "",
          "type": "address"
        }
      ],
      "payable": false,
      "stateMutability": "view",
      "type": "function"
    },
    {
      "constant": false,
      "inputs": [
        {
          "name": "newAdmins",
          "type": "address[]"
        }
      ],
      "name": "grant",
      "outputs": [],
      "payable": false,
      "stateMutability": "nonpayable",
      "type": "function"
    },
    {
      "constant": true,
      "inputs": [
        {
          "name": "admin",
          "type": "address"
        }
      ],
      "name": "isAdmin",
      "outputs": [
        {
          "name": "",
          "type": "bool"
        }
      ],
      "payable": false,
      "stateMutability": "view",
      "type": "function"
    },
    {
      "constant": true,
      "inputs": [],
      "name": "registered",
      "outputs": [
        {
          "name": "",
          "type": "uint256"
        }
      ],
      "payable": false,
      "stateMutability": "view",
      "type": "function"
    },
    {
      "constant": true,
      "inputs": [],
      "name": "getAdmins",
      "outputs": [
        {
          "name": "",
          "type": "address[]"
        }
      ],
      "payable": false,
      "stateMutability": "view",
      "type": "function"
    },
    {
      "constant": true,
      "inputs": [],
      "name": "endedAt",
      "outputs": [
        {
          "name": "",
          "type": "uint256"
        }
      ],
      "payable": false,
      "stateMutability": "view",
      "type": "function"
    },
    {
      "constant": true,
      "inputs": [],
      "name": "payoutAmount",
      "outputs": [
        {
          "name": "",
          "type": "uint256"
        }
      ],
      "payable": false,
      "stateMutability": "view",
      "type": "function"
    },
    {
      "constant": true,
      "inputs": [],
      "name": "limitOfParticipants",
      "outputs": [
        {
          "name": "",
          "type": "uint256"
        }
      ],
      "payable": false,
      "stateMutability": "view",
      "type": "function"
    },
    {
      "constant": false,
      "inputs": [],
      "name": "destroy",
      "outputs": [],
      "payable": false,
      "stateMutability": "nonpayable",
      "type": "function"
    },
    {
      "constant": true,
      "inputs": [],
      "name": "owner",
      "outputs": [
        {
          "name": "",
          "type": "address"
        }
      ],
      "payable": false,
      "stateMutability": "view",
      "type": "function"
    },
    {
      "constant": true,
      "inputs": [],
      "name": "coolingPeriod",
      "outputs": [
        {
          "name": "",
          "type": "uint256"
        }
      ],
      "payable": false,
      "stateMutability": "view",
      "type": "function"
    },
    {
      "constant": true,
      "inputs": [],
      "name": "cancelled",
      "outputs": [
        {
          "name": "",
          "type": "bool"
        }
      ],
      "payable": false,
      "stateMutability": "view",
      "type": "function"
    },
    {
      "constant": true,
      "inputs": [
        {
          "name": "",
          "type": "uint256"
        }
      ],
      "name": "participantsIndex",
      "outputs": [
        {
          "name": "",
          "type": "address"
        }
      ],
      "payable": false,
      "stateMutability": "view",
      "type": "function"
    },
    {
      "constant": true,
      "inputs": [],
      "name": "encryption",
      "outputs": [
        {
          "name": "",
          "type": "string"
        }
      ],
      "payable": false,
      "stateMutability": "view",
      "type": "function"
    },
    {
      "constant": true,
      "inputs": [],
      "name": "attended",
      "outputs": [
        {
          "name": "",
          "type": "uint256"
        }
      ],
      "payable": false,
      "stateMutability": "view",
      "type": "function"
    },
    {
      "constant": true,
      "inputs": [],
      "name": "deposit",
      "outputs": [
        {
          "name": "",
          "type": "uint256"
        }
      ],
      "payable": false,
      "stateMutability": "view",
      "type": "function"
    },
    {
      "constant": false,
      "inputs": [
        {
          "name": "newOwner",
          "type": "address"
        }
      ],
      "name": "transferOwnership",
      "outputs": [],
      "payable": false,
      "stateMutability": "nonpayable",
      "type": "function"
    },
    {
      "constant": false,
      "inputs": [
        {
          "name": "_recipient",
          "type": "address"
        }
      ],
      "name": "destroyAndSend",
      "outputs": [],
      "payable": false,
      "stateMutability": "nonpayable",
      "type": "function"
    },
    {
      "inputs": [
        {
          "name": "_name",
          "type": "string"
        },
        {
          "name": "_deposit",
          "type": "uint256"
        },
        {
          "name": "_limitOfParticipants",
          "type": "uint256"
        },
        {
          "name": "_coolingPeriod",
          "type": "uint256"
        },
        {
          "name": "_token",
          "type": "address"
        },
        {
          "name": "_encryption",
          "type": "string"
        }
      ],
      "payable": false,
      "stateMutability": "nonpayable",
      "type": "constructor"
    },
    {
      "anonymous": false,
      "inputs": [
        {
          "indexed": false,
          "name": "addr",
          "type": "address"
        },
        {
          "indexed": false,
          "name": "participantName",
          "type": "string"
        },
        {
          "indexed": false,
          "name": "_encryption",
          "type": "string"
        }
      ],
      "name": "RegisterEvent",
      "type": "event"
    },
    {
      "anonymous": false,
      "inputs": [
        {
          "indexed": false,
          "name": "addr",
          "type": "address"
        }
      ],
      "name": "AttendEvent",
      "type": "event"
    },
    {
      "anonymous": false,
      "inputs": [
        {
          "indexed": false,
          "name": "_payout",
          "type": "uint256"
        }
      ],
      "name": "PaybackEvent",
      "type": "event"
    },
    {
      "anonymous": false,
      "inputs": [
        {
          "indexed": false,
          "name": "addr",
          "type": "address"
        },
        {
          "indexed": false,
          "name": "_payout",
          "type": "uint256"
        }
      ],
      "name": "WithdrawEvent",
      "type": "event"
    },
    {
      "anonymous": false,
      "inputs": [],
      "name": "CancelEvent",
      "type": "event"
    },
    {
      "anonymous": false,
      "inputs": [
        {
          "indexed": false,
          "name": "addr",
          "type": "address"
        },
        {
          "indexed": false,
          "name": "leftOver",
          "type": "uint256"
        }
      ],
      "name": "ClearEvent",
      "type": "event"
    },
    {
      "anonymous": false,
      "inputs": [
        {
          "components": [
            {
              "name": "sender",
              "type": "address"
            },
            {
              "name": "value",
              "type": "uint256"
            },
            {
              "name": "data",
              "type": "bytes"
            },
            {
              "name": "sig",
              "type": "bytes4"
            }
          ],
          "indexed": false,
          "name": "tkn",
          "type": "tuple"
        }
      ],
      "name": "debug",
      "type": "event"
    },
    {
      "anonymous": false,
      "inputs": [
        {
          "indexed": true,
          "name": "grantee",
          "type": "address"
        }
      ],
      "name": "AdminGranted",
      "type": "event"
    },
    {
      "anonymous": false,
      "inputs": [
        {
          "indexed": true,
          "name": "grantee",
          "type": "address"
        }
      ],
      "name": "AdminRevoked",
      "type": "event"
    },
    {
      "anonymous": false,
      "inputs": [
        {
          "indexed": true,
          "name": "previousOwner",
          "type": "address"
        },
        {
          "indexed": true,
          "name": "newOwner",
          "type": "address"
        }
      ],
      "name": "OwnershipTransferred",
      "type": "event"
    },
    {
      "constant": false,
      "inputs": [
        {
          "name": "_participant",
          "type": "string"
        },
        {
          "name": "_encrypted",
          "type": "string"
        }
      ],
      "name": "registerWithEncryption",
      "outputs": [],
      "payable": false,
      "stateMutability": "nonpayable",
      "type": "function"
    },
    {
      "constant": false,
      "inputs": [
        {
          "name": "_participant",
          "type": "string"
        }
      ],
      "name": "register",
      "outputs": [],
      "payable": false,
      "stateMutability": "nonpayable",
      "type": "function"
    },
    {
      "constant": false,
      "inputs": [],
      "name": "withdraw",
      "outputs": [],
      "payable": false,
      "stateMutability": "nonpayable",
      "type": "function"
    },
    {
      "constant": true,
      "inputs": [],
      "name": "totalBalance",
      "outputs": [
        {
          "name": "",
          "type": "uint256"
        }
      ],
      "payable": false,
      "stateMutability": "view",
      "type": "function"
    },
    {
      "constant": true,
      "inputs": [
        {
          "name": "_addr",
          "type": "address"
        }
      ],
      "name": "isRegistered",
      "outputs": [
        {
          "name": "",
          "type": "bool"
        }
      ],
      "payable": false,
      "stateMutability": "view",
      "type": "function"
    },
    {
      "constant": true,
      "inputs": [
        {
          "name": "_addr",
          "type": "address"
        }
      ],
      "name": "isAttended",
      "outputs": [
        {
          "name": "",
          "type": "bool"
        }
      ],
      "payable": false,
      "stateMutability": "view",
      "type": "function"
    },
    {
      "constant": true,
      "inputs": [
        {
          "name": "_addr",
          "type": "address"
        }
      ],
      "name": "isPaid",
      "outputs": [
        {
          "name": "",
          "type": "bool"
        }
      ],
      "payable": false,
      "stateMutability": "view",
      "type": "function"
    },
    {
      "constant": true,
      "inputs": [],
      "name": "payout",
      "outputs": [
        {
          "name": "",
          "type": "uint256"
        }
      ],
      "payable": false,
      "stateMutability": "view",
      "type": "function"
    },
    {
      "constant": false,
      "inputs": [],
      "name": "payback",
      "outputs": [],
      "payable": false,
      "stateMutability": "nonpayable",
      "type": "function"
    },
    {
      "constant": false,
      "inputs": [],
      "name": "cancel",
      "outputs": [],
      "payable": false,
      "stateMutability": "nonpayable",
      "type": "function"
    },
    {
      "constant": false,
      "inputs": [],
      "name": "clear",
      "outputs": [],
      "payable": false,
      "stateMutability": "nonpayable",
      "type": "function"
    },
    {
      "constant": false,
      "inputs": [
        {
          "name": "_limitOfParticipants",
          "type": "uint256"
        }
      ],
      "name": "setLimitOfParticipants",
      "outputs": [],
      "payable": false,
      "stateMutability": "nonpayable",
      "type": "function"
    },
    {
      "constant": false,
      "inputs": [
        {
          "name": "_addresses",
          "type": "address[]"
        }
      ],
      "name": "attend",
      "outputs": [],
      "payable": false,
      "stateMutability": "nonpayable",
      "type": "function"
    },
    {
      "constant": false,
      "inputs": [
        {
          "name": "_from",
          "type": "address"
        },
        {
          "name": "_value",
          "type": "uint256"
        },
        {
          "name": "_data",
          "type": "bytes"
        }
      ],
      "name": "tokenFallback",
      "outputs": [],
      "payable": false,
      "stateMutability": "nonpayable",
      "type": "function"
    }
  ],
  "bytecode": "0x606060405234156200001057600080fd5b60405162001d7438038062001d74833981016040528080518201919060200180519190602001805191906020018051919060200180519190602001805160008054600160a060020a03338116600160a060020a03199283161790925560028054928716929091169190911790559091019050855115620000a65760038680516200009f92916020019062000166565b50620000f1565b60408051908101604052600481527f546573740000000000000000000000000000000000000000000000000000000060208201526003908051620000ef92916020019062000166565b505b84156200010357600485905562000109565b60c86004555b83156200011b57600584905562000121565b60146005555b82156200013357600a8390556200013b565b62093a80600a555b8051156200015a57600c8180516200015892916020019062000166565b505b5050505050506200020b565b828054600181600116156101000203166002900490600052602060002090601f016020900481019282601f10620001a957805160ff1916838001178555620001d9565b82800160010185558215620001d9579182015b82811115620001d9578251825591602001919060010190620001bc565b50620001e7929150620001eb565b5090565b6200020891905b80821115620001e75760008155600101620001f2565b90565b611b59806200021b6000396000f3006060604052600436106101cc5763ffffffff7c01000000000000000000000000000000000000000000000000000000006000350416630191dc9281146101d157806305f203d9146101f657806306fdde031461024757806309e69ede146102d157806312fa6feb1461038957806314bfd6d0146103b05780631e3c9352146103e257806324d7806c146104315780632de40ce31461045057806331ae450b146104635780633ccfd60b146104c95780633d6a71e4146104dc57806352efea6e146104ef5780635d27bff31461050257806363bd1d4a1461052c5780636b46c8c31461053f5780636d006ae8146105525780636ded82f81461056557806383197ef014610584578063854bec87146105975780638da5cb5b146105aa5780639328beee146105bd578063982495c7146105d05780639989a5ae146105ee5780639a82a09a146106045780639b25cacb14610617578063a07f3a561461062d578063a531d3621461064c578063ad7a672f1461065f578063b5e10e9a14610672578063c0ee0b8a14610685578063c3c5a547146106ea578063d0e30db014610709578063ea8a1af01461071c578063f2c298be1461072f578063f2fde38b1461074d578063f5074f411461076c575b600080fd5b34156101dc57600080fd5b6101e461078b565b60405190815260200160405180910390f35b341561020157600080fd5b610245600460248135818101908301358060208181020160405190810160405280939291908181526020018383602002808284375094965061079295505050505050565b005b341561025257600080fd5b61025a610902565b60405160208082528190810183818151815260200191508051906020019080838360005b8381101561029657808201518382015260200161027e565b50505050905090810190601f1680156102c35780820380516001836020036101000a031916815260200191505b509250505060405180910390f35b34156102dc57600080fd5b6102f0600160a060020a03600435166109a0565b604051600160a060020a03841660208201528215156040820152811515606082015260808082528190810186818151815260200191508051906020019080838360005b8381101561034b578082015183820152602001610333565b50505050905090810190601f1680156103785780820380516001836020036101000a031916815260200191505b509550505050505060405180910390f35b341561039457600080fd5b61039c610a9e565b604051901515815260200160405180910390f35b34156103bb57600080fd5b6103c6600435610aa7565b604051600160a060020a03909116815260200160405180910390f35b34156103ed57600080fd5b6102456004602481358181019083013580602081810201604051908101604052809392919081815260200183836020028082843750949650610acf95505050505050565b341561043c57600080fd5b61039c600160a060020a0360043516610baa565b341561045b57600080fd5b6101e4610c2a565b341561046e57600080fd5b610476610c30565b60405160208082528190810183818151815260200191508051906020019060200280838360005b838110156104b557808201518382015260200161049d565b505050509050019250505060405180910390f35b34156104d457600080fd5b610245610d02565b34156104e757600080fd5b6101e4610eca565b34156104fa57600080fd5b610245610ed0565b341561050d57600080fd5b6102456024600480358281019290820135918135918201910135610fb1565b341561053757600080fd5b6101e461107d565b341561054a57600080fd5b6101e46110ac565b341561055d57600080fd5b6101e46110b2565b341561057057600080fd5b61039c600160a060020a03600435166110b8565b341561058f57600080fd5b610245611109565b34156105a257600080fd5b610245611132565b34156105b557600080fd5b6103c66111b0565b34156105c857600080fd5b6101e46111bf565b34156105db57600080fd5b61024560048035602481019101356111c5565b34156105f957600080fd5b6102456004356112e3565b341561060f57600080fd5b61039c611313565b341561062257600080fd5b6103c6600435611321565b341561063857600080fd5b61039c600160a060020a036004351661133c565b341561065757600080fd5b61025a611388565b341561066a57600080fd5b6101e46113f3565b341561067d57600080fd5b6101e461147a565b341561069057600080fd5b61024560048035600160a060020a03169060248035919060649060443590810190830135806020601f8201819004810201604051908101604052818152929190602084018383808284375094965061148095505050505050565b34156106f557600080fd5b61039c600160a060020a036004351661160a565b341561071457600080fd5b6101e461162d565b341561072757600080fd5b610245611633565b341561073a57600080fd5b61024560048035602481019101356116ae565b341561075857600080fd5b610245600160a060020a0360043516611769565b341561077757600080fd5b610245600160a060020a0360043516611804565b6001545b90565b60008054819033600160a060020a039081169116146107b057600080fd5b600091505b82518210156108fd575060005b6001548110156108f2578282815181106107d857fe5b90602001906020020151600160a060020a03166001828154811015156107fa57fe5b600091825260209091200154600160a060020a031614156108e75760018054600019810190811061082757fe5b60009182526020909120015460018054600160a060020a03909216918390811061084d57fe5b6000918252602090912001805473ffffffffffffffffffffffffffffffffffffffff1916600160a060020a03929092169190911790556001805490610896906000198301611a31565b508282815181106108a357fe5b90602001906020020151600160a060020a03167f631ff1c4e1a02c54b480a34b810e03bcee61fe38efcb243930a7f820914923e260405160405180910390a26108f2565b8160010191506107c2565b6001909101906107b5565b505050565b60038054600181600116156101000203166002900480601f0160208091040260200160405190810160405280929190818152602001828054600181600116156101000203166002900480156109985780601f1061096d57610100808354040283529160200191610998565b820191906000526020600020905b81548152906001019060200180831161097b57829003601f168201915b505050505081565b600d602052806000526040600020600091509050806000018054600181600116156101000203166002900480601f016020809104026020016040519081016040528092919081815260200182805460018160011615610100020316600290048015610a4c5780601f10610a2157610100808354040283529160200191610a4c565b820191906000526020600020905b815481529060010190602001808311610a2f57829003601f168201915b50505060019093015491925050600160a060020a0381169060ff740100000000000000000000000000000000000000008204811691750100000000000000000000000000000000000000000090041684565b60085460ff1681565b6001805482908110610ab557fe5b600091825260209091200154600160a060020a0316905081565b6000805433600160a060020a03908116911614610aeb57600080fd5b5060005b8151811015610ba65760018054808201610b098382611a31565b91600052602060002090016000848481518110610b2257fe5b90602001906020020151909190916101000a815481600160a060020a030219169083600160a060020a0316021790555050818181518110610b5f57fe5b90602001906020020151600160a060020a03167f1c4e23de8d72c94b22992bd4d7b6786b215ba876af214ff63e6a0ca38fc97af460405160405180910390a2600101610aef565b5050565b600080548190600160a060020a0384811691161415610bcc5760019150610c24565b5060005b600154811015610c1f5782600160a060020a0316600182815481101515610bf357fe5b600091825260209091200154600160a060020a03161415610c175760019150610c24565b600101610bd0565b600091505b50919050565b60065481565b610c38611a55565b610c40611a55565b6001805460009101604051805910610c555750595b90808252806020026020018201604052509150600090505b600154811015610cc5576001805482908110610c8557fe5b600091825260209091200154600160a060020a0316828281518110610ca657fe5b600160a060020a03909216602092830290910190910152600101610c6d565b600054600154600160a060020a0390911690839081518110610ce357fe5b600160a060020a03929092166020928302919091019091015250919050565b60085460009060ff161515610d1657600080fd5b600b5460009011610d2657600080fd5b50600160a060020a033381166000818152600d60205260409020600181015490921614610d5257600080fd5b600854610100900460ff1680610d845750600181015474010000000000000000000000000000000000000000900460ff165b1515610d8f57600080fd5b60018101547501000000000000000000000000000000000000000000900460ff1615610dba57600080fd5b60018101805475ff00000000000000000000000000000000000000000019167501000000000000000000000000000000000000000000179055600254600b54600160a060020a039091169063a9059cbb9033906040517c010000000000000000000000000000000000000000000000000000000063ffffffff8516028152600160a060020a0390921660048301526024820152604401602060405180830381600087803b1515610e6957600080fd5b5af11515610e7657600080fd5b50505060405180519050507f5dba113b49cfa7c90315e8e604e6b506f7abcb909b01dcb19ec39005086e68fc33600b54604051600160a060020a03909216825260208201526040908101905180910390a150565b60095481565b6000805433600160a060020a03908116911614610eec57600080fd5b60085460ff161515610efd57600080fd5b600a54600954014211610f0f57600080fd5b60085460ff161515610f2057600080fd5b610f286113f3565b600054909150600160a060020a031681156108fc0282604051600060405180830381858888f193505050501515610f5e57600080fd5b6000547f61355a34c3bc2e502a24eba7ad2fb0fd0d05c4f71de8cb041fbe39cd3649665e90600160a060020a031682604051600160a060020a03909216825260208201526040908101905180910390a150565b60085460ff1615610fc157600080fd5b610ff984848080601f01602080910402602001604051908101604052818152929190602084018383808284375061182b945050505050565b7f8d272c75acbe64f584f00b43ea2e4ac139abac8e8b8f118e5588e14bbb5c40313385858585604051600160a060020a0386168152606060208201818152908201859052604082016080830187878082843790910184810383528581526020019050858580828437820191505097505050505050505060405180910390a150505050565b6000600754600014156110925750600061078f565b60075461109d6113f3565b8115156110a657fe5b04905090565b600b5481565b60055481565b60006110c38261160a565b80156111035750600160a060020a0382166000908152600d60205260409020600101547501000000000000000000000000000000000000000000900460ff165b92915050565b60005433600160a060020a0390811691161461112457600080fd5b600054600160a060020a0316ff5b60005433600160a060020a0390811691161461114d57600080fd5b60085460ff161561115d57600080fd5b61116561107d565b600b8190556008805460ff19166001179055426009557fb7152de35affc741a6b2355d37e9caf51fe847cacfccd414be5e15996ff7e6c69060405190815260200160405180910390a1565b600054600160a060020a031681565b600a5481565b6000806111d133610baa565b15156111dc57600080fd5b60085460ff16156111ec57600080fd5b600091505b828210156112dd5783838381811061120557fe5b90506020020135600160a060020a031690506112208161160a565b151561122b57600080fd5b6112348161133c565b1561123e57600080fd5b7f1c5e7a37dd4095194684d8f835d2c81b686d64d685032055a7cd02edc7c49ed881604051600160a060020a03909116815260200160405180910390a1600160a060020a0381166000908152600d602052604090206001908101805474ff0000000000000000000000000000000000000000191674010000000000000000000000000000000000000000179055600780548201905591909101906111f1565b50505050565b60005433600160a060020a039081169116146112fe57600080fd5b60085460ff161561130e57600080fd5b600555565b600854610100900460ff1681565b600e60205260009081526040902054600160a060020a031681565b60006113478261160a565b8015611103575050600160a060020a03166000908152600d602052604090206001015474010000000000000000000000000000000000000000900460ff1690565b600c8054600181600116156101000203166002900480601f0160208091040260200160405190810160405280929190818152602001828054600181600116156101000203166002900480156109985780601f1061096d57610100808354040283529160200191610998565b600254600090600160a060020a03166370a08231306040517c010000000000000000000000000000000000000000000000000000000063ffffffff8416028152600160a060020a039091166004820152602401602060405180830381600087803b151561145f57600080fd5b5af1151561146c57600080fd5b505050604051805191505090565b60075481565b611488611a67565b600160a060020a03841681526020810183905260408101829052600060188382815181106114b257fe5b016020015160f860020a900460f860020a0260f860020a900463ffffffff169060020a026010846001815181106114e557fe5b016020015160f860020a900460f860020a0260f860020a900463ffffffff169060020a0260088560028151811061151857fe5b016020015160f860020a900460f860020a0260f860020a900463ffffffff169060020a028560038151811061154957fe5b016020015160f860020a900460f860020a0260f860020a90040101019050807c01000000000000000000000000000000000000000000000000000000000282606001907bffffffffffffffffffffffffffffffffffffffffffffffffffffffff191690817bffffffffffffffffffffffffffffffffffffffffffffffffffffffff1916815250507f6081eaf0612c20fc5d75db041624929771ed100a1f01d541f1a1a8c1bf23bbba8260405190815260200160405180910390a15050505050565b600160a060020a039081166000908152600d602052604090206001015416151590565b60045481565b60005433600160a060020a0390811691161461164e57600080fd5b60085460ff161561165e57600080fd5b600454600b556008805460ff1961ff001990911661010017166001179055426009557faac5ae2dfd439bb6c2f88b2d8af5b285cfee7584ad0d13ae7c00c1226c7c4c7b60405160405180910390a1565b60085460ff16156116be57600080fd5b6116f682828080601f01602080910402602001604051908101604052818152929190602084018383808284375061182b945050505050565b7f8d272c75acbe64f584f00b43ea2e4ac139abac8e8b8f118e5588e14bbb5c4031338383604051600160a060020a03841681526060602082018181529082018390526040820160808301858580828437909101938403909152505060008152604090810193509150505180910390a15050565b60005433600160a060020a0390811691161461178457600080fd5b600160a060020a038116151561179957600080fd5b600054600160a060020a0380831691167f8be0079c531659141344cd1fd0a4f28419497f9722a3daafe3b4186f6b6457e060405160405180910390a36000805473ffffffffffffffffffffffffffffffffffffffff1916600160a060020a0392909216919091179055565b60005433600160a060020a0390811691161461181f57600080fd5b80600160a060020a0316ff5b600454600254600160a060020a03166370a08231336040517c010000000000000000000000000000000000000000000000000000000063ffffffff8416028152600160a060020a039091166004820152602401602060405180830381600087803b151561189757600080fd5b5af115156118a457600080fd5b50505060405180519050101515156118bb57600080fd5b600554600654106118cb57600080fd5b6118d43361160a565b156118de57600080fd5b60068054600101908190556000908152600e602052604090819020805473ffffffffffffffffffffffffffffffffffffffff191633600160a060020a0316179055608090519081016040908152828252600160a060020a0333166020808401829052600083850181905260608501819052918252600d90522081518190805161196b929160200190611a95565b50602082015160018201805473ffffffffffffffffffffffffffffffffffffffff1916600160a060020a03929092169190911790556040820151600182018054911515740100000000000000000000000000000000000000000274ff00000000000000000000000000000000000000001990921691909117905560608201516001909101805491151575010000000000000000000000000000000000000000000275ff000000000000000000000000000000000000000000199092169190911790555050565b8154818355818115116108fd576000838152602090206108fd918101908301611b13565b60206040519081016040526000815290565b60806040519081016040908152600080835260208301528101611a88611a55565b8152600060209091015290565b828054600181600116156101000203166002900490600052602060002090601f016020900481019282601f10611ad657805160ff1916838001178555611b03565b82800160010185558215611b03579182015b82811115611b03578251825591602001919060010190611ae8565b50611b0f929150611b13565b5090565b61078f91905b80821115611b0f5760008155600101611b195600a165627a7a723058200b53184549eb90ec303e96b452549fc3f7c08ebc0485044be1f7742a9003f6040029",
  "source": "pragma solidity ^ 0.4 .19;\n\nimport './GroupAdmin.sol';\nimport \"./CompliantToken.sol\";\nimport './zeppelin/lifecycle/Destructible.sol';\n\ncontract TokenConference is Destructible, GroupAdmin {\n\tCompliantToken token;\n\tstring public name;\n\tuint256 public deposit;\n\tuint public limitOfParticipants;\n\tuint public registered;\n\tuint public attended;\n\tbool public ended;\n\tbool public cancelled;\n\tuint public endedAt;\n\tuint public coolingPeriod;\n\tuint256 public payoutAmount;\n\tstring public encryption;\n\n\tmapping(address => Participant) public participants;\n\tmapping(uint => address) public participantsIndex;\n\tbool paid;\n\n\n\tstruct Participant {\n\t\tstring participantName;\n\t\taddress addr;\n\t\tbool attended;\n\t\tbool paid;\n\t}\n\n\tstruct TKN {\n\t\taddress sender;\n\t\tuint value;\n\t\tbytes data;\n\t\tbytes4 sig;\n\t}\n\n\tevent RegisterEvent(address addr, string participantName, string _encryption);\n\tevent AttendEvent(address addr);\n\tevent PaybackEvent(uint256 _payout);\n\tevent WithdrawEvent(address addr, uint256 _payout);\n\tevent CancelEvent();\n\tevent ClearEvent(address addr, uint256 leftOver);\n\n\t/* Modifiers */\n\tmodifier onlyActive {\n\t\trequire(!ended);\n\t\t_;\n\t}\n\n\tmodifier onlyEnded {\n\t\trequire(ended);\n\t\t_;\n\t}\n\n\tmodifier fundsAvailable {\n\t\trequire(token.balanceOf(msg.sender) >= deposit);\n\t\t_;\n\t}\n\n\t/* Public functions */\n\n\tfunction TokenConference(\n\t\tstring _name,\n\t\tuint256 _deposit,\n\t\tuint _limitOfParticipants,\n\t\tuint _coolingPeriod,\n\t\taddress _token,\n\t\tstring _encryption\n\t) public {\n\t\ttoken = CompliantToken(_token);\n\t\tif (bytes(_name).length != 0) {\n\t\t\tname = _name;\n\t\t} else {\n\t\t\tname = 'Test';\n\t\t}\n\n\t\tif (_deposit != 0) {\n\t\t\tdeposit = _deposit;\n\t\t} else {\n\t\t\tdeposit = 200;\n\t\t}\n\n\t\tif (_limitOfParticipants != 0) {\n\t\t\tlimitOfParticipants = _limitOfParticipants;\n\t\t} else {\n\t\t\tlimitOfParticipants = 20;\n\t\t}\n\n\t\tif (_coolingPeriod != 0) {\n\t\t\tcoolingPeriod = _coolingPeriod;\n\t\t} else {\n\t\t\tcoolingPeriod = 1 weeks;\n\t\t}\n\n\t\tif (bytes(_encryption).length != 0) {\n\t\t\tencryption = _encryption;\n\t\t}\n\t}\n\n\tfunction registerWithEncryption(string _participant, string _encrypted) external onlyActive {\n\t\tregisterInternal(_participant);\n\t\temit RegisterEvent(msg.sender, _participant, _encrypted);\n\t}\n\n\tfunction register(string _participant) external onlyActive {\n\t\tregisterInternal(_participant);\n\t\temit RegisterEvent(msg.sender, _participant, '');\n\t}\n\n\tfunction registerInternal(string _participant) internal fundsAvailable {\n\t\t// require(msg.value == deposit);\n\t\trequire(registered < limitOfParticipants);\n\t\trequire(!isRegistered(msg.sender));\n\t\tregistered++;\n\t\tparticipantsIndex[registered] = msg.sender;\n\t\tparticipants[msg.sender] = Participant(_participant, msg.sender, false, false);\n\t}\n\n\tfunction withdraw() external onlyEnded {\n\t\trequire(payoutAmount > 0);\n\t\tParticipant storage participant = participants[msg.sender];\n\t\trequire(participant.addr == msg.sender);\n\t\trequire(cancelled || participant.attended);\n\t\trequire(participant.paid == false);\n\n\t\tparticipant.paid = true;\n\t\t// participant.addr.transfer(payoutAmount);\n\t\ttoken.transfer(msg.sender, payoutAmount);\n\t\temit WithdrawEvent(msg.sender, payoutAmount);\n\t}\n\n\t/* Constants */\n\tfunction totalBalance() constant public returns(uint256) {\n\t\treturn token.balanceOf(this);\n\t}\n\n\tfunction isRegistered(address _addr) constant public returns(bool) {\n\t\treturn participants[_addr].addr != address(0);\n\t}\n\n\tfunction isAttended(address _addr) constant public returns(bool) {\n\t\treturn isRegistered(_addr) && participants[_addr].attended;\n\t}\n\n\tfunction isPaid(address _addr) constant public returns(bool) {\n\t\treturn isRegistered(_addr) && participants[_addr].paid;\n\t}\n\n\tfunction payout() constant public returns(uint256) {\n\t\tif (attended == 0) return 0;\n\t\treturn uint(totalBalance()) / uint(attended);\n\t}\n\n\t/* Admin only functions */\n\n\tfunction payback() external onlyOwner onlyActive {\n\t\tpayoutAmount = payout();\n\t\tended = true;\n\t\tendedAt = now;\n\t\temit PaybackEvent(payoutAmount);\n\t}\n\n\tfunction cancel() external onlyOwner onlyActive {\n\t\tpayoutAmount = deposit;\n\t\tcancelled = true;\n\t\tended = true;\n\t\tendedAt = now;\n\t\temit CancelEvent();\n\t}\n\n\t/* return the remaining of balance if there are any unclaimed after cooling period */\n\tfunction clear() external onlyOwner onlyEnded {\n\t\trequire(now > endedAt + coolingPeriod);\n\t\trequire(ended);\n\t\tuint leftOver = totalBalance();\n\t\towner.transfer(leftOver);\n\t\temit ClearEvent(owner, leftOver);\n\t}\n\n\tfunction setLimitOfParticipants(uint _limitOfParticipants) external onlyOwner onlyActive {\n\t\tlimitOfParticipants = _limitOfParticipants;\n\t}\n\n\tfunction attend(address[] _addresses) external onlyAdmin onlyActive {\n\t\tfor (uint i = 0; i < _addresses.length; i++) {\n\t\t\taddress _addr = _addresses[i];\n\t\t\trequire(isRegistered(_addr));\n\t\t\trequire(!isAttended(_addr));\n\t\t\temit AttendEvent(_addr);\n\t\t\tparticipants[_addr].attended = true;\n\t\t\tattended++;\n\t\t}\n\t}\n\n\tevent debug(TKN tkn);\n\t// ERC223 compliance\n\t// function tokenFallback(address _from, uint _value, bytes _data) public pure {\n\tfunction tokenFallback(address _from, uint _value, bytes _data) public {\n\t\tTKN memory tkn;\n\t\ttkn.sender = _from;\n\t\ttkn.value = _value;\n\t\ttkn.data = _data;\n\t\tuint32 u = uint32(_data[3]) + (uint32(_data[2]) << 8) + (uint32(_data[1]) << 16) + (uint32(_data[0]) << 24);\n\t\ttkn.sig = bytes4(u);\n\t\temit debug(tkn);\n\n\t\t/* tkn variable is analogue of msg variable of Ether transaction\n\t\t *  tkn.sender is person who initiated this token transaction   (analogue of msg.sender)\n\t\t *  tkn.value the number of tokens that were sent   (analogue of msg.value)\n\t\t *  tkn.data is data of token transaction   (analogue of msg.data)\n\t\t *  tkn.sig is 4 bytes signature of function\n\t\t *  if data of token transaction is a function execution\n\t\t */\n\t}\n}",
  "sourcePath": "/home/ryan/Documents/Repos/MVP/contracts/TokenConference.sol",
  "compiler": {
    "name": "solc",
    "version": "0.4.21+commit.dfe3193c.Emscripten.clang"
  },
  "schemaVersion": "2.0.0",
  "updatedAt": "2018-04-11T12:56:51.407Z"
}